{
  "contractName": "Betting",
  "abi": [
    {
      "constant": true,
      "inputs": [
        {
          "name": "",
          "type": "uint256"
        }
      ],
      "name": "bets",
      "outputs": [
        {
          "name": "send",
          "type": "uint256"
        },
        {
          "name": "recv",
          "type": "uint256"
        },
        {
          "name": "prob",
          "type": "uint256"
        },
        {
          "name": "creator",
          "type": "address"
        },
        {
          "name": "acceptor",
          "type": "address"
        }
      ],
      "payable": false,
      "stateMutability": "view",
      "type": "function",
      "signature": "0x22af00fa"
    },
    {
      "constant": true,
      "inputs": [
        {
          "name": "",
          "type": "address"
        }
      ],
      "name": "balences",
      "outputs": [
        {
          "name": "",
          "type": "uint256"
        }
      ],
      "payable": false,
      "stateMutability": "view",
      "type": "function",
      "signature": "0x873785fd"
    },
    {
      "constant": true,
      "inputs": [],
      "name": "owner",
      "outputs": [
        {
          "name": "",
          "type": "address"
        }
      ],
      "payable": false,
      "stateMutability": "view",
      "type": "function",
      "signature": "0x8da5cb5b"
    },
    {
      "constant": true,
      "inputs": [],
      "name": "numBets",
      "outputs": [
        {
          "name": "",
          "type": "uint256"
        }
      ],
      "payable": false,
      "stateMutability": "view",
      "type": "function",
      "signature": "0xdf06f906"
    },
    {
      "inputs": [],
      "payable": false,
      "stateMutability": "nonpayable",
      "type": "constructor",
      "signature": "constructor"
    },
    {
      "anonymous": false,
      "inputs": [
        {
          "indexed": false,
          "name": "send",
          "type": "uint256"
        },
        {
          "indexed": false,
          "name": "recv",
          "type": "uint256"
        },
        {
          "indexed": false,
          "name": "prob",
          "type": "uint256"
        },
        {
          "indexed": false,
          "name": "creator",
          "type": "address"
        }
      ],
      "name": "BetCreated",
      "type": "event",
      "signature": "0x7c99f934fcb0ec6a5942523f3d901c5bcaa185ded0d18da904cec15269f910d0"
    },
    {
      "anonymous": false,
      "inputs": [
        {
          "indexed": false,
          "name": "total",
          "type": "uint256"
        },
        {
          "indexed": false,
          "name": "winner",
          "type": "address"
        },
        {
          "indexed": false,
          "name": "loser",
          "type": "address"
        }
      ],
      "name": "BetAcceped",
      "type": "event",
      "signature": "0xb78c3e2ddb5a58f902be09f8ffbb9f85c817b95ea37a1f62024d6f05bf00d1a8"
    },
    {
      "constant": false,
      "inputs": [
        {
          "name": "_value",
          "type": "uint256"
        }
      ],
      "name": "deposit",
      "outputs": [],
      "payable": false,
      "stateMutability": "nonpayable",
      "type": "function",
      "signature": "0xb6b55f25"
    },
    {
      "constant": false,
      "inputs": [
        {
          "name": "_send",
          "type": "uint256"
        },
        {
          "name": "_recv",
          "type": "uint256"
        },
        {
          "name": "_prob",
          "type": "uint256"
        }
      ],
      "name": "createBet",
      "outputs": [],
      "payable": false,
      "stateMutability": "nonpayable",
      "type": "function",
      "signature": "0x9062ce7d"
    },
    {
      "constant": false,
      "inputs": [
        {
          "name": "_bet",
          "type": "uint256"
        }
      ],
      "name": "accept",
      "outputs": [],
      "payable": false,
      "stateMutability": "nonpayable",
      "type": "function",
      "signature": "0x19b05f49"
    },
    {
      "constant": false,
      "inputs": [
        {
          "name": "_bet",
          "type": "uint256"
        }
      ],
      "name": "doBet",
      "outputs": [],
      "payable": false,
      "stateMutability": "nonpayable",
      "type": "function",
      "signature": "0xb8a1e355"
    }
  ],
  "bytecode": "0x608060405234801561001057600080fd5b50336000806101000a81548173ffffffffffffffffffffffffffffffffffffffff021916908373ffffffffffffffffffffffffffffffffffffffff160217905550610b82806100606000396000f3fe60806040526004361061008e576000357c0100000000000000000000000000000000000000000000000000000000900463ffffffff16806319b05f491461009357806322af00fa146100ce578063873785fd146101915780638da5cb5b146101f65780639062ce7d1461024d578063b6b55f251461029c578063b8a1e355146102d7578063df06f90614610312575b600080fd5b34801561009f57600080fd5b506100cc600480360360208110156100b657600080fd5b810190808035906020019092919050505061033d565b005b3480156100da57600080fd5b50610107600480360360208110156100f157600080fd5b810190808035906020019092919050505061047e565b604051808681526020018581526020018481526020018373ffffffffffffffffffffffffffffffffffffffff1673ffffffffffffffffffffffffffffffffffffffff1681526020018273ffffffffffffffffffffffffffffffffffffffff1673ffffffffffffffffffffffffffffffffffffffff1681526020019550505050505060405180910390f35b34801561019d57600080fd5b506101e0600480360360208110156101b457600080fd5b81019080803573ffffffffffffffffffffffffffffffffffffffff169060200190929190505050610503565b6040518082815260200191505060405180910390f35b34801561020257600080fd5b5061020b61051b565b604051808273ffffffffffffffffffffffffffffffffffffffff1673ffffffffffffffffffffffffffffffffffffffff16815260200191505060405180910390f35b34801561025957600080fd5b5061029a6004803603606081101561027057600080fd5b81019080803590602001909291908035906020019092919080359060200190929190505050610540565b005b3480156102a857600080fd5b506102d5600480360360208110156102bf57600080fd5b8101908080359060200190929190505050610786565b005b3480156102e357600080fd5b50610310600480360360208110156102fa57600080fd5b81019080803590602001909291905050506107d6565b005b34801561031e57600080fd5b50610327610af4565b6040518082815260200191505060405180910390f35b60028181548110151561034c57fe5b906000526020600020906005020160010154600160003373ffffffffffffffffffffffffffffffffffffffff1673ffffffffffffffffffffffffffffffffffffffff1681526020019081526020016000205410151561047b57336002828154811015156103b557fe5b906000526020600020906005020160040160006101000a81548173ffffffffffffffffffffffffffffffffffffffff021916908373ffffffffffffffffffffffffffffffffffffffff16021790555060028181548110151561041357fe5b906000526020600020906005020160010154600160003373ffffffffffffffffffffffffffffffffffffffff1673ffffffffffffffffffffffffffffffffffffffff1681526020019081526020016000206000828254039250508190555061047a816107d6565b5b50565b60028181548110151561048d57fe5b90600052602060002090600502016000915090508060000154908060010154908060020154908060030160009054906101000a900473ffffffffffffffffffffffffffffffffffffffff16908060040160009054906101000a900473ffffffffffffffffffffffffffffffffffffffff16905085565b60016020528060005260406000206000915090505481565b6000809054906101000a900473ffffffffffffffffffffffffffffffffffffffff1681565b82600160003373ffffffffffffffffffffffffffffffffffffffff1673ffffffffffffffffffffffffffffffffffffffff168152602001908152602001600020541015156107815782600160003373ffffffffffffffffffffffffffffffffffffffff1673ffffffffffffffffffffffffffffffffffffffff16815260200190815260200160002060008282540392505081905550600260a0604051908101604052808581526020018481526020018381526020013373ffffffffffffffffffffffffffffffffffffffff1681526020013373ffffffffffffffffffffffffffffffffffffffff168152509080600181540180825580915050906001820390600052602060002090600502016000909192909190915060008201518160000155602082015181600101556040820151816002015560608201518160030160006101000a81548173ffffffffffffffffffffffffffffffffffffffff021916908373ffffffffffffffffffffffffffffffffffffffff16021790555060808201518160040160006101000a81548173ffffffffffffffffffffffffffffffffffffffff021916908373ffffffffffffffffffffffffffffffffffffffff1602179055505050507f7c99f934fcb0ec6a5942523f3d901c5bcaa185ded0d18da904cec15269f910d083838333604051808581526020018481526020018381526020018273ffffffffffffffffffffffffffffffffffffffff1673ffffffffffffffffffffffffffffffffffffffff16815260200194505050505060405180910390a15b505050565b80600160003373ffffffffffffffffffffffffffffffffffffffff1673ffffffffffffffffffffffffffffffffffffffff1681526020019081526020016000206000828254019250508190555050565b6107de610afa565b6002828154811015156107ed57fe5b906000526020600020906005020160a060405190810160405290816000820154815260200160018201548152602001600282015481526020016003820160009054906101000a900473ffffffffffffffffffffffffffffffffffffffff1673ffffffffffffffffffffffffffffffffffffffff1673ffffffffffffffffffffffffffffffffffffffff1681526020016004820160009054906101000a900473ffffffffffffffffffffffffffffffffffffffff1673ffffffffffffffffffffffffffffffffffffffff1673ffffffffffffffffffffffffffffffffffffffff1681525050905060006064428115156108e157fe5b069050600082602001518360000151019050600080846040015184111515610967578260016000876060015173ffffffffffffffffffffffffffffffffffffffff1673ffffffffffffffffffffffffffffffffffffffff1681526020019081526020016000206000828254019250508190555084606001519150846080015190506109c7565b8260016000876080015173ffffffffffffffffffffffffffffffffffffffff1673ffffffffffffffffffffffffffffffffffffffff1681526020019081526020016000206000828254019250508190555084608001519150846060015190505b7fb78c3e2ddb5a58f902be09f8ffbb9f85c817b95ea37a1f62024d6f05bf00d1a8838383604051808481526020018373ffffffffffffffffffffffffffffffffffffffff1673ffffffffffffffffffffffffffffffffffffffff1681526020018273ffffffffffffffffffffffffffffffffffffffff1673ffffffffffffffffffffffffffffffffffffffff168152602001935050505060405180910390a1600286815481101515610a7557fe5b9060005260206000209060050201600080820160009055600182016000905560028201600090556003820160006101000a81549073ffffffffffffffffffffffffffffffffffffffff02191690556004820160006101000a81549073ffffffffffffffffffffffffffffffffffffffff02191690555050505050505050565b60035481565b60a060405190810160405280600081526020016000815260200160008152602001600073ffffffffffffffffffffffffffffffffffffffff168152602001600073ffffffffffffffffffffffffffffffffffffffff168152509056fea165627a7a72305820e853595119e472bcda5d3a7aec7b9a925d019b582f8584118fd4c6578d4494010029",
  "source": "pragma solidity ^0.5.0;\n\ncontract Betting{\n    \n    address public owner;\n    mapping (address => uint) public balences;\n\n    event BetCreated (\n        uint send,\n        uint recv,\n        uint prob,\n        address creator\n    );\n\n    event BetAcceped (\n        uint total,\n        address winner,\n        address loser\n    );\n    \n    struct Bet {\n        uint send;\n        uint recv;\n        uint prob;\n        address creator;\n        address acceptor;\n    }\n    \n    Bet[] public bets;\n    uint public numBets;\n\n    constructor() public {\n        owner = msg.sender;\n    }\n    \n    function deposit(uint _value) public {\n        balences[msg.sender] += _value;\n    }\n    \n    function createBet(uint _send, uint _recv, uint _prob) public {\n        if(balences[msg.sender] >= _send){\n            balences[msg.sender] -= _send;\n            bets.push(Bet({\n                send: _send,\n                recv: _recv,\n                prob: _prob,\n                creator: msg.sender,\n                acceptor: msg.sender\n            }));\n            emit BetCreated(_send, _recv, _prob, msg.sender);\n        }\n    }\n    \n    function accept(uint _bet) public {\n        if(balences[msg.sender] >= bets[_bet].recv){\n            bets[_bet].acceptor = msg.sender;\n            balences[msg.sender] -= bets[_bet].recv;\n            doBet(_bet);\n        }\n    }\n    \n    function doBet(uint _bet) public {\n        Bet memory bet = bets[_bet];\n        uint random = uint(block.timestamp) % 100;\n        uint total = bet.send + bet.recv;\n        address winner;\n        address loser;\n        if(random <= bet.prob){\n            balences[bet.creator] += total;\n            winner = bet.creator;\n            loser = bet.acceptor;\n        }else{\n            balences[bet.acceptor] += total;\n            winner = bet.acceptor;\n            loser = bet.creator;\n        }\n        emit BetAcceped(total, winner, loser);\n        delete bets[_bet];\n    }\n}",
  "sourcePath": "/Users/milfran/Desktop/Crypto/dapp/contracts/Betting.sol",
  "compiler": {
    "name": "solc",
    "version": "0.5.0+commit.1d4f565a.Emscripten.clang"
  },
  "schemaVersion": "3.0.5",
  "updatedAt": "2019-03-29T22:08:58.923Z",
  "devdoc": {
    "methods": {}
  },
  "userdoc": {
    "methods": {}
  }
}